:100000000C9464000C948C000C948C000C949B0158
:100010000C949B010C949B010C948C000C948C0010
:100020000C948C000C948C000C948C000C948C0020
:100030000C948C000C948C000C948C000C948C0010
:100040000C9428050C948C000C945C040C948E0485
:100050000C948C000C948C000C948C000C948C00F0
:100060000C948C000C948C0000000008000201002D
:100070000003040700000000000000000102040863
:100080001020408001020408102001020408102002
:10009000040404040404040402020202020203032E
:1000A00003030303000000002300260029000000D2
:1000B0000000250028002B0000000000240027007D
:1000C0002A00A000BE04A70011241FBECFEFD8E075
:1000D000DEBFCDBF11E0A0E0B1E0E8E7FDE002C087
:1000E00005900D92A432B107D9F722E0A4E2B1E065
:1000F00001C01D92AD32B207E1F710E0C3E6D0E0D7
:1001000004C02197FE010E94A906C136D107C9F794
:100110000E9419050C94AF060C94000026E040E8FC
:1001200055E260E070E087E891E00E94FA0340E861
:1001300055E260E070E084E291E00C94970208954B
:1001400020E043E062E084E291E00C946C0284E2FF
:1001500091E00C94130290E080E0089520918501D5
:100160003091860128173907B9F4909143018091A5
:100170004401981789F0E0914301F0E0EB5BFE4FFA
:1001800080812091430130E02F5F3F4F2F73332751
:100190002093430190E008958FEF9FEF0895EF9231
:1001A000FF920F931F93CF93DF93DC015C96ED904A
:1001B000FC905D97E114F10479F481E090E01396EE
:1001C0009C938E93129790E080E0DF91CF911F91E6
:1001D0000F91FF90EF9008955196ED91FC915297F9
:1001E00050968C915097982F90950FB75E962C91C2
:1001F0005E97122F127021FD6095F89420811123D3
:1002000019F1282B2083E7012197F1F728E0462FE9
:1002100050E0308160FF1AC0382B3083E70121970E
:10022000F1F7BA0175956795215089F7112381F08F
:100230008081892380830FBF5C968D919C9101976B
:10024000F1F781E090E0C1CF2923DCCF3923E5CF5E
:100250009081892BEFCF08952091850130918601FF
:100260002817390771F49091430180914401981740
:1002700041F0E0914301F0E0EB5BFE4F808190E0C4
:1002800008958FEF9FEF08952091850130918601A9
:100290002817390771F4809144012091430190E0BF
:1002A000805C9F4F821B910960E470E00E944006D1
:1002B000089590E080E00895E0918501F091860135
:1002C000E817F90769F4A389B4899C918589809519
:1002D00089238C93109286011092850181E0089504
:1002E00080E00895CF93DF93EC018A8D9B8D892B5D
:1002F00001F180918501909186018C179D07C9F0CD
:10030000009711F00E945C018E8D8E7F8E8F10926F
:10031000440110924301D0938601C0938501EB897B
:10032000FC8980819D89892B808381E0DF91CF9139
:10033000089580E0FBCF1F920F920FB60F92112409
:100340002F933F934F935F936F937F938F939F93DD
:10035000AF93BF93EF93FF93E0918501F0918601F6
:10036000309749F0A685B7858585968D91FF14C095
:100370009C918923A1F4FF91EF91BF91AF919F913F
:100380008F917F916F915F914F913F912F910F903E
:100390000FBE0F901F9018959C91892361F7A38938
:1003A000B4899C918589809589238C9386899789C6
:1003B0000197F1F7608D718DA685B785558538E079
:1003C00020E0CB010197F1F7822F90E0959587957A
:1003D000282F4C91452309F02068315091F7868DE4
:1003E00081FD20958091440190E001968F739927BB
:1003F00030914301381799F0A0914401B0E0AB5B14
:10040000BE4F2C9380934401828D938D0197F1F719
:10041000A389B4898C919589892B8C93ACCF868DD7
:100420008160868FF1CF24E031E0FC0131832083AD
:100430000C945C011F93CF93DF93EC01162F6E8D0C
:100440006695617081E06827812F0E94120661E045
:10045000812F0E94D605812F90E0FC01E458FF4FC8
:10046000E491E88BFC01E057FF4FE491F0E0EE0FE0
:10047000FF1FE255FF4F859194919A8B898BDF91F5
:10048000CF911F9108951F93CF93DF93EC01162F07
:1004900060E0812F0E94D6058E8D81FD04C061E051
:1004A000812F0E9412061C87812F90E0FC01E458E6
:1004B000FF4FE491ED87FC01E057FF4FE491F0E03E
:1004C000EE0FFF1FEC55FF4F859194919F878E870C
:1004D000DF91CF911F9108951F93CF93DF93EC018C
:1004E000162F1B821A8288EE93E0A0E0B0E08C8386
:1004F0009D83AE83BF8384E091E0998388831F8AC4
:100500001E8A198E188E1B8E1A8E1D8E1C8E8E8D35
:100510008E7F20FB81F98E8F642FCE010E941A02FC
:10052000612FCE01DF91CF911F910C944302CF93A5
:10053000DF93EC019A01AB011B8E1A8E198E188E77
:100540001F8A1E8A60E079E08DE390E00E947606C3
:10055000F901C90103972430310510F481E090E0DE
:100560009D8F8C8F6C85663108F052C0C9019695BD
:1005700087958431910508F450C043979F8B8E8BEB
:10058000C9010597369710F481E090E0998F888F24
:10059000C901880F991F280F391F36952795369561
:1005A00027952D303105E0F12C5031093B8F2A8FF2
:1005B0009091680084E0683048F021E06E3008F4E3
:1005C00020E081E001C0880F2A95EAF7892B80930B
:1005D00068009C852DE630E0983050F02BE630E046
:1005E0009E3030F02CE630E0963110F030E020E024
:1005F0003C8B2B8B292F30E09830A8F481E001C090
:10060000880F9A95EAF78D8B8C8D9D8D0197F1F768
:10061000CE01DF91CF910C94720181E090E0AECFDA
:1006200021E030E0C3CF9E3040F42850310981E012
:1006300001C0880F2A95EAF7E6CF2E503109F7CF8F
:10064000FC01918D228D892F90E0805C9F4F821B51
:1006500091098F7399270895FC01918D828D9817C8
:1006600031F0828DE80FF11D858D90E008958FEFB8
:100670009FEF0895FC01918D828D981761F0A28DF6
:10068000AE0FBF2FB11D5D968C91928D9F5F9F73B2
:10069000928F90E008958FEF9FEF0895FC01538DA6
:1006A000448D252F30E0842F90E0821B930B54174C
:1006B00010F0CF9608950197089584EB94E0892B6C
:1006C00049F080E090E0892B29F00E94B404811168
:1006D0000C9400000895FC01A48DA80FB92FB11D42
:1006E000A35ABF4F2C91848D90E001968F73992768
:1006F000848FA689B7892C93A089B1898C91837046
:1007000080648C93938D848D981306C00288F3893E
:10071000E02D80818F7D80830895CF93DF93EC015E
:10072000888D8823B9F0AA89BB89E889F9898C91D9
:1007300085FD03C0808186FD0DC00FB607FCF7CF95
:100740008C9185FFF2CF808185FFEDCFCE010E9495
:100750006B03E9CFDF91CF910895EF92FF920F9352
:100760001F93CF93DF93EC0181E0888F9B8D8C8D5D
:1007700098131AC0E889F989808185FF15C09FB751
:10078000F894EE89FF896083E889F9898081837014
:10079000806480839FBF81E090E0DF91CF911F91C3
:1007A0000F91FF90EF900895F62E0B8D10E00F5FE4
:1007B0001F4F0F731127E02E8C8D8E110CC00FB6BA
:1007C00007FCFACFE889F989808185FFF5CFCE0152
:1007D0000E946B03F1CFEB8DEC0FFD2FF11DE35A5F
:1007E000FF4FF0829FB7F8940B8FEA89FB898081D5
:1007F0008062CFCFCF92DF92EF92FF921F93CF9381
:10080000DF93EC016A017B01122FE889F98982E00C
:100810008083C11481EED806E104F104A1F060E008
:1008200079E08DE390E0A70196010E9454062150E3
:100830003109410951095695479537952795211555
:1008400080E1380798F0E889F989108260E874E857
:100850008EE190E0A70196010E94540621503109D3
:10086000410951095695479537952795EC85FD85A2
:100870003083EE85FF852083188EEC89FD891083F7
:10088000EA89FB89808180618083EA89FB89808194
:1008900088608083EA89FB89808180688083EA8917
:1008A000FB8980818F7D8083DF91CF911F91FF90A5
:1008B000EF90DF90CF9008951F920F920FB60F9296
:1008C00011242F938F939F93EF93FF93E0919701C0
:1008D000F09198018081E0919D01F0919E0182FD4F
:1008E0001BC090818091A0018F5F8F732091A10127
:1008F000821741F0E091A001F0E0E957FE4F958F9B
:100900008093A001FF91EF919F918F912F910F9074
:100910000FBE0F901F9018958081F4CF1F920F92F9
:100920000FB60F9211242F933F934F935F936F93C2
:100930007F938F939F93AF93BF93EF93FF9387E83A
:1009400091E00E946B03FF91EF91BF91AF919F9156
:100950008F917F916F915F914F913F912F910F9068
:100960000FBE0F901F90189587E891E00E9420031A
:1009700021E0892B09F420E0822F0895E7E8F1E0D7
:100980001382128288EE93E0A0E0B0E08483958326
:10099000A683B78386E191E09183808385EC90E024
:1009A0009587848784EC90E09787868780EC90E039
:1009B000918B808B81EC90E0938B828B82EC90E02A
:1009C000958B848B86EC90E0978B868B118E128EA4
:1009D000138E148E0895AF92BF92CF92DF92EF9252
:1009E000FF920F931F93CF93DF936C017B018B01D9
:1009F000040F151FEB015E01AE18BF08C017D10729
:100A000059F06991D601ED91FC910190F081E02DB2
:100A1000C6010995892B79F7C501DF91CF911F9107
:100A20000F91FF90EF90DF90CF90BF90AF9008951F
:100A300008950E9472050E9418050E948E00CDE55F
:100A4000D3E00E949F002097E1F30E945D03F9CF5D
:100A50001F920F920FB60F9211242F933F938F93F3
:100A60009F93AF93BF938091250290912602A0910E
:100A70002702B09128023091240223E0230F2D3762
:100A800058F50196A11DB11D2093240280932502E3
:100A900090932602A0932702B09328028091290206
:100AA00090912A02A0912B02B0912C020196A11DD7
:100AB000B11D8093290290932A02A0932B02B09338
:100AC0002C02BF91AF919F918F913F912F910F90E9
:100AD0000FBE0F901F90189526E8230F0296A11DB8
:100AE000B11DD2CF789484B5826084BD84B5816015
:100AF00084BD85B5826085BD85B5816085BDEEE626
:100B0000F0E0808181608083E1E8F0E01082808104
:100B100082608083808181608083E0E8F0E0808172
:100B200081608083E1EBF0E0808184608083E0EB92
:100B3000F0E0808181608083EAE7F0E0808184607A
:100B400080838081826080838081816080838081D6
:100B5000806880831092C1000895833081F028F46A
:100B6000813099F08230A9F008958730A9F088305B
:100B7000C9F08430B1F4809180008F7D03C08091F2
:100B800080008F7780938000089584B58F7784BD2F
:100B9000089584B58F7DFBCF8091B0008F778093CF
:100BA000B00008958091B0008F7DF9CFCF93DF938F
:100BB00090E0FC01E458FF4F249180579F4FFC01C7
:100BC00084918823C9F090E0880F991FFC01E854B4
:100BD000FF4FA591B491FC01E255FF4FC591D4910F
:100BE00061110DC09FB7F8948C91209582238C934E
:100BF0008881282328839FBFDF91CF910895623099
:100C000051F49FB7F8943C91822F809583238C9365
:100C1000E8812E2BEFCF8FB7F894EC912E2B2C93ED
:100C20008FBFEACF1F93CF93DF93282F30E0F901D6
:100C3000E859FF4F8491F901E458FF4FD491F9012D
:100C4000E057FF4FC491CC23A9F0162F81110E94C9
:100C5000AD05EC2FF0E0EE0FFF1FE255FF4FA59121
:100C6000B4918FB7F894EC91111108C0D095DE23A0
:100C7000DC938FBFDF91CF911F910895DE2BF8CFCA
:100C800097FB072E16F4009407D077FD09D00E9439
:100C9000950607FC05D03EF4909581959F4F0895E9
:100CA000709561957F4F0895A1E21A2EAA1BBB1B78
:100CB000FD010DC0AA1FBB1FEE1FFF1FA217B30728
:100CC000E407F50720F0A21BB30BE40BF50B661F3E
:100CD000771F881F991F1A9469F760957095809502
:100CE00090959B01AC01BD01CF010895052E97FBA6
:100CF0001EF400940E948D0657FD07D00E945406F2
:100D000007FC03D04EF40C948D0650954095309519
:100D100021953F4F4F4F5F4F089590958095709567
:100D200061957F4F8F4F9F4F0895AA1BBB1B51E1C9
:100D300007C0AA1FBB1FA617B70710F0A61BB70B4B
:100D4000881F991F5A95A9F780959095BC01CD01F0
:100D50000895EE0FFF1F0590F491E02D099410E027
:100D6000C3E6D0E004C0FE010E94A9062196C43665
:080D7000D107C9F7F894FFCF89
:100D780000000000CF00EB04AB002B014401AE00E3
:100D88002C0100000000AD03EB044E038D0320038B
:040D98003A032C03EB
:00000001FF
